{
  "contractName": "KYCContract",
  "abi": [
    {
      "constant": true,
      "inputs": [
        {
          "name": "",
          "type": "uint256"
        }
      ],
      "name": "customerList",
      "outputs": [
        {
          "name": "userName",
          "type": "string"
        },
        {
          "name": "password",
          "type": "string"
        },
        {
          "name": "customerData",
          "type": "string"
        },
        {
          "name": "rating",
          "type": "uint256"
        },
        {
          "name": "upVotes",
          "type": "uint32"
        },
        {
          "name": "bank",
          "type": "address"
        }
      ],
      "payable": false,
      "stateMutability": "view",
      "type": "function"
    },
    {
      "constant": true,
      "inputs": [
        {
          "name": "",
          "type": "uint256"
        }
      ],
      "name": "requestList",
      "outputs": [
        {
          "name": "uname",
          "type": "string"
        },
        {
          "name": "bankAddress",
          "type": "address"
        },
        {
          "name": "customerData",
          "type": "string"
        },
        {
          "name": "isAllowed",
          "type": "bool"
        }
      ],
      "payable": false,
      "stateMutability": "view",
      "type": "function"
    },
    {
      "constant": true,
      "inputs": [
        {
          "name": "",
          "type": "uint256"
        }
      ],
      "name": "voteBankList",
      "outputs": [
        {
          "name": "fromBankAddress",
          "type": "address"
        },
        {
          "name": "toBankAddress",
          "type": "address"
        }
      ],
      "payable": false,
      "stateMutability": "view",
      "type": "function"
    },
    {
      "constant": true,
      "inputs": [
        {
          "name": "",
          "type": "uint256"
        }
      ],
      "name": "finalCustomerList",
      "outputs": [
        {
          "name": "userName",
          "type": "string"
        },
        {
          "name": "password",
          "type": "string"
        },
        {
          "name": "customerData",
          "type": "string"
        },
        {
          "name": "rating",
          "type": "uint256"
        },
        {
          "name": "upVotes",
          "type": "uint32"
        },
        {
          "name": "bank",
          "type": "address"
        }
      ],
      "payable": false,
      "stateMutability": "view",
      "type": "function"
    },
    {
      "constant": true,
      "inputs": [
        {
          "name": "",
          "type": "address"
        },
        {
          "name": "",
          "type": "uint256"
        }
      ],
      "name": "bankRequestList",
      "outputs": [
        {
          "name": "",
          "type": "string"
        }
      ],
      "payable": false,
      "stateMutability": "view",
      "type": "function"
    },
    {
      "constant": true,
      "inputs": [
        {
          "name": "",
          "type": "uint256"
        }
      ],
      "name": "bankList",
      "outputs": [
        {
          "name": "name",
          "type": "string"
        },
        {
          "name": "ethAddress",
          "type": "address"
        },
        {
          "name": "rating",
          "type": "uint32"
        },
        {
          "name": "kycCount",
          "type": "uint32"
        },
        {
          "name": "regNumber",
          "type": "string"
        }
      ],
      "payable": false,
      "stateMutability": "view",
      "type": "function"
    },
    {
      "constant": true,
      "inputs": [
        {
          "name": "",
          "type": "uint256"
        }
      ],
      "name": "customerRatingList",
      "outputs": [
        {
          "name": "fromBankAddress",
          "type": "address"
        },
        {
          "name": "toCustomerName",
          "type": "string"
        }
      ],
      "payable": false,
      "stateMutability": "view",
      "type": "function"
    },
    {
      "inputs": [],
      "payable": false,
      "stateMutability": "nonpayable",
      "type": "constructor"
    },
    {
      "constant": false,
      "inputs": [
        {
          "name": "customerName",
          "type": "string"
        },
        {
          "name": "customerData",
          "type": "string"
        }
      ],
      "name": "addRequest",
      "outputs": [
        {
          "name": "",
          "type": "uint256"
        }
      ],
      "payable": true,
      "stateMutability": "payable",
      "type": "function"
    },
    {
      "constant": false,
      "inputs": [
        {
          "name": "customerName",
          "type": "string"
        },
        {
          "name": "customerData",
          "type": "string"
        }
      ],
      "name": "addCustomer",
      "outputs": [
        {
          "name": "",
          "type": "uint256"
        }
      ],
      "payable": true,
      "stateMutability": "payable",
      "type": "function"
    },
    {
      "constant": false,
      "inputs": [
        {
          "name": "customerName",
          "type": "string"
        },
        {
          "name": "customerData",
          "type": "string"
        }
      ],
      "name": "removeRequest",
      "outputs": [
        {
          "name": "",
          "type": "uint256"
        }
      ],
      "payable": true,
      "stateMutability": "payable",
      "type": "function"
    },
    {
      "constant": false,
      "inputs": [
        {
          "name": "customerName",
          "type": "string"
        }
      ],
      "name": "removeCustomer",
      "outputs": [
        {
          "name": "",
          "type": "uint256"
        }
      ],
      "payable": true,
      "stateMutability": "payable",
      "type": "function"
    },
    {
      "constant": true,
      "inputs": [
        {
          "name": "customerName",
          "type": "string"
        },
        {
          "name": "password",
          "type": "string"
        }
      ],
      "name": "viewCustomer",
      "outputs": [
        {
          "name": "",
          "type": "string"
        }
      ],
      "payable": false,
      "stateMutability": "view",
      "type": "function"
    },
    {
      "constant": false,
      "inputs": [
        {
          "name": "customerName",
          "type": "string"
        }
      ],
      "name": "upVoteCustomer",
      "outputs": [
        {
          "name": "",
          "type": "uint256"
        }
      ],
      "payable": true,
      "stateMutability": "payable",
      "type": "function"
    },
    {
      "constant": false,
      "inputs": [
        {
          "name": "customerName",
          "type": "string"
        },
        {
          "name": "password",
          "type": "string"
        },
        {
          "name": "newCustomerData",
          "type": "string"
        }
      ],
      "name": "modifyCustomer",
      "outputs": [
        {
          "name": "",
          "type": "uint256"
        }
      ],
      "payable": true,
      "stateMutability": "payable",
      "type": "function"
    },
    {
      "constant": false,
      "inputs": [
        {
          "name": "bankAddress",
          "type": "address"
        }
      ],
      "name": "getBankRequests",
      "outputs": [
        {
          "name": "",
          "type": "string[]"
        }
      ],
      "payable": true,
      "stateMutability": "payable",
      "type": "function"
    },
    {
      "constant": false,
      "inputs": [
        {
          "name": "bankAddress",
          "type": "address"
        }
      ],
      "name": "upVoteBank",
      "outputs": [
        {
          "name": "",
          "type": "uint256"
        }
      ],
      "payable": true,
      "stateMutability": "payable",
      "type": "function"
    },
    {
      "constant": false,
      "inputs": [
        {
          "name": "username",
          "type": "string"
        }
      ],
      "name": "getCustomerRating",
      "outputs": [
        {
          "name": "",
          "type": "uint256"
        }
      ],
      "payable": true,
      "stateMutability": "payable",
      "type": "function"
    },
    {
      "constant": false,
      "inputs": [
        {
          "name": "bankAddress",
          "type": "address"
        }
      ],
      "name": "getBankRating",
      "outputs": [
        {
          "name": "",
          "type": "uint256"
        }
      ],
      "payable": true,
      "stateMutability": "payable",
      "type": "function"
    },
    {
      "constant": false,
      "inputs": [
        {
          "name": "username",
          "type": "string"
        }
      ],
      "name": "retrieveCustomerAccessHistory",
      "outputs": [
        {
          "name": "",
          "type": "address"
        }
      ],
      "payable": true,
      "stateMutability": "payable",
      "type": "function"
    },
    {
      "constant": false,
      "inputs": [
        {
          "name": "username",
          "type": "string"
        },
        {
          "name": "password",
          "type": "string"
        }
      ],
      "name": "setPassword",
      "outputs": [
        {
          "name": "",
          "type": "bool"
        }
      ],
      "payable": true,
      "stateMutability": "payable",
      "type": "function"
    },
    {
      "constant": true,
      "inputs": [
        {
          "name": "bankAddress",
          "type": "address"
        }
      ],
      "name": "getBankDetails",
      "outputs": [
        {
          "components": [
            {
              "name": "name",
              "type": "string"
            },
            {
              "name": "ethAddress",
              "type": "address"
            },
            {
              "name": "rating",
              "type": "uint32"
            },
            {
              "name": "kycCount",
              "type": "uint32"
            },
            {
              "name": "regNumber",
              "type": "string"
            }
          ],
          "name": "",
          "type": "tuple"
        }
      ],
      "payable": false,
      "stateMutability": "view",
      "type": "function"
    },
    {
      "constant": false,
      "inputs": [
        {
          "name": "bankName",
          "type": "string"
        },
        {
          "name": "bankAddress",
          "type": "address"
        },
        {
          "name": "regNumber",
          "type": "string"
        }
      ],
      "name": "addBank",
      "outputs": [
        {
          "name": "",
          "type": "uint256"
        }
      ],
      "payable": true,
      "stateMutability": "payable",
      "type": "function"
    },
    {
      "constant": false,
      "inputs": [
        {
          "name": "bankAddress",
          "type": "address"
        }
      ],
      "name": "removeBank",
      "outputs": [
        {
          "name": "",
          "type": "uint256"
        }
      ],
      "payable": true,
      "stateMutability": "payable",
      "type": "function"
    }
  ],
  "bytecode": "0x608060405234801561001057600080fd5b50336000806101000a81548173ffffffffffffffffffffffffffffffffffffffff021916908373ffffffffffffffffffffffffffffffffffffffff16021790555061531c806100606000396000f3fe60806040526004361061012c576000357c010000000000000000000000000000000000000000000000000000000090048062d1d4e91461013157806302e9d43b1461017357806315101e02146101b35780631f2c141a146101f05780633190abc01461022d578063569e64bc1461025d578063628e09ad1461028d578063662ca67a146102bd578063884785ef146102fb5780638eafe0f01461033d5780639649650c1461036d578063a0635f7e1461039d578063a18dce7b146103cd578063a3858b97146103fd578063b8144a721461042d578063b9da4af81461045d578063c657ef921461048d578063ca386496146104ca578063cba49c21146104fa578063ccb6b0d21461053b578063ccfa8e711461056b578063fc55ea9d1461059b578063fcc4d342146105cb575b600080fd5b34801561013d57600080fd5b5061015860048036036101539190810190614d6f565b610609565b60405161016a969594939291906150d4565b60405180910390f35b34801561017f57600080fd5b5061019a60048036036101959190810190614d6f565b61084c565b6040516101aa9493929190615020565b60405180910390f35b3480156101bf57600080fd5b506101da60048036036101d59190810190614b47565b6109e8565b6040516101e7919061514a565b60405180910390f35b3480156101fc57600080fd5b5061021760048036036102129190810190614c6c565b610ca2565b6040516102249190614ffe565b60405180910390f35b61024760048036036102429190810190614c6c565b61102a565b604051610254919061516c565b60405180910390f35b61027760048036036102729190810190614bac565b611560565b604051610284919061516c565b60405180910390f35b6102a760048036036102a29190810190614b47565b611be2565b6040516102b49190614f9f565b60405180910390f35b3480156102c957600080fd5b506102e460048036036102df9190810190614d6f565b611edd565b6040516102f2929190614f46565b60405180910390f35b34801561030757600080fd5b50610322600480360361031d9190810190614d6f565b611f50565b604051610334969594939291906150d4565b60405180910390f35b61035760048036036103529190810190614bac565b612193565b604051610364919061516c565b60405180910390f35b61038760048036036103829190810190614b47565b6122ae565b604051610394919061516c565b60405180910390f35b6103b760048036036103b29190810190614c6c565b612572565b6040516103c4919061516c565b60405180910390f35b6103e760048036036103e29190810190614cd8565b6128b9565b6040516103f4919061516c565b60405180910390f35b61041760048036036104129190810190614bac565b612ee2565b6040516104249190614f2b565b60405180910390f35b61044760048036036104429190810190614b47565b613041565b604051610454919061516c565b60405180910390f35b61047760048036036104729190810190614c6c565b61311f565b604051610484919061516c565b60405180910390f35b34801561049957600080fd5b506104b460048036036104af9190810190614b70565b613578565b6040516104c19190614fdc565b60405180910390f35b6104e460048036036104df9190810190614c6c565b613640565b6040516104f19190614fc1565b60405180910390f35b34801561050657600080fd5b50610521600480360361051c9190810190614d6f565b613895565b604051610532959493929190615073565b60405180910390f35b61055560048036036105509190810190614b47565b613a4a565b604051610562919061516c565b60405180910390f35b61058560048036036105809190810190614bed565b613d47565b604051610592919061516c565b60405180910390f35b6105b560048036036105b09190810190614bac565b613faa565b6040516105c2919061516c565b60405180910390f35b3480156105d757600080fd5b506105f260048036036105ed9190810190614d6f565b614260565b604051610600929190614f6f565b60405180910390f35b60018181548110151561061857fe5b9060005260206000209060050201600091509050806000018054600181600116156101000203166002900480601f0160208091040260200160405190810160405280929190818152602001828054600181600116156101000203166002900480156106c45780601f10610699576101008083540402835291602001916106c4565b820191906000526020600020905b8154815290600101906020018083116106a757829003601f168201915b505050505090806001018054600181600116156101000203166002900480601f0160208091040260200160405190810160405280929190818152602001828054600181600116156101000203166002900480156107625780601f1061073757610100808354040283529160200191610762565b820191906000526020600020905b81548152906001019060200180831161074557829003601f168201915b505050505090806002018054600181600116156101000203166002900480601f0160208091040260200160405190810160405280929190818152602001828054600181600116156101000203166002900480156108005780601f106107d557610100808354040283529160200191610800565b820191906000526020600020905b8154815290600101906020018083116107e357829003601f168201915b5050505050908060030154908060040160009054906101000a900463ffffffff16908060040160049054906101000a900473ffffffffffffffffffffffffffffffffffffffff16905086565b60048181548110151561085b57fe5b9060005260206000209060040201600091509050806000018054600181600116156101000203166002900480601f0160208091040260200160405190810160405280929190818152602001828054600181600116156101000203166002900480156109075780601f106108dc57610100808354040283529160200191610907565b820191906000526020600020905b8154815290600101906020018083116108ea57829003601f168201915b5050505050908060010160009054906101000a900473ffffffffffffffffffffffffffffffffffffffff1690806002018054600181600116156101000203166002900480601f0160208091040260200160405190810160405280929190818152602001828054600181600116156101000203166002900480156109cb5780601f106109a0576101008083540402835291602001916109cb565b820191906000526020600020905b8154815290600101906020018083116109ae57829003601f168201915b5050505050908060030160009054906101000a900460ff16905084565b6109f061444f565b60008090505b600380549050811015610c9b578273ffffffffffffffffffffffffffffffffffffffff16600382815481101515610a2957fe5b906000526020600020906003020160010160009054906101000a900473ffffffffffffffffffffffffffffffffffffffff1673ffffffffffffffffffffffffffffffffffffffff161415610c8e57600381815481101515610a8657fe5b906000526020600020906003020160a06040519081016040529081600082018054600181600116156101000203166002900480601f016020809104026020016040519081016040528092919081815260200182805460018160011615610100020316600290048015610b395780601f10610b0e57610100808354040283529160200191610b39565b820191906000526020600020905b815481529060010190602001808311610b1c57829003601f168201915b505050505081526020016001820160009054906101000a900473ffffffffffffffffffffffffffffffffffffffff1673ffffffffffffffffffffffffffffffffffffffff1673ffffffffffffffffffffffffffffffffffffffff1681526020016001820160149054906101000a900463ffffffff1663ffffffff1663ffffffff1681526020016001820160189054906101000a900463ffffffff1663ffffffff1663ffffffff168152602001600282018054600181600116156101000203166002900480601f016020809104026020016040519081016040528092919081815260200182805460018160011615610100020316600290048015610c7d5780601f10610c5257610100808354040283529160200191610c7d565b820191906000526020600020905b815481529060010190602001808311610c6057829003601f168201915b505050505081525050915050610c9d565b80806001019150506109f6565b505b919050565b60606000826040516020018082805190602001908083835b602083101515610cdf5780518252602082019150602081019050602083039250610cba565b6001836020036101000a038019825116818451168082178552505050505050905001915050604051602081830303815290604052511415610d53576040805190810160405280600181526020017f300000000000000000000000000000000000000000000000000000000000000081525091505b60008090505b600180549050811015610fc357610e28600182815481101515610d7857fe5b90600052602060002090600502016000018054600181600116156101000203166002900480601f016020809104026020016040519081016040528092919081815260200182805460018160011615610100020316600290048015610e1d5780601f10610df257610100808354040283529160200191610e1d565b820191906000526020600020905b815481529060010190602001808311610e0057829003601f168201915b50505050508561434b565b8015610ef25750610ef1600182815481101515610e4157fe5b90600052602060002090600502016001018054600181600116156101000203166002900480601f016020809104026020016040519081016040528092919081815260200182805460018160011615610100020316600290048015610ee65780601f10610ebb57610100808354040283529160200191610ee6565b820191906000526020600020905b815481529060010190602001808311610ec957829003601f168201915b50505050508461434b565b5b15610fb857600181815481101515610f0657fe5b90600052602060002090600502016002018054600181600116156101000203166002900480601f016020809104026020016040519081016040528092919081815260200182805460018160011615610100020316600290048015610fab5780601f10610f8057610100808354040283529160200191610fab565b820191906000526020600020905b815481529060010190602001808311610f8e57829003601f168201915b5050505050915050611024565b806001019050610d59565b50606060405190810160405280603881526020017f496e76616c69642063726564656e7469616c73206f7220637573746f6d65722081526020017f6e6f742070726573656e7420696e20646174616261736521000000000000000081525090505b92915050565b600080600090505b60018054905081101561111b5761110160018281548110151561105157fe5b90600052602060002090600502016000018054600181600116156101000203166002900480601f0160208091040260200160405190810160405280929190818152602001828054600181600116156101000203166002900480156110f65780601f106110cb576101008083540402835291602001916110f6565b820191906000526020600020905b8154815290600101906020018083116110d957829003601f168201915b50505050508561434b565b1561111057600091505061155a565b806001019050611032565b5060008090505b600480549050811015611554576111f160048281548110151561114157fe5b90600052602060002090600402016000018054600181600116156101000203166002900480601f0160208091040260200160405190810160405280929190818152602001828054600181600116156101000203166002900480156111e65780601f106111bb576101008083540402835291602001916111e6565b820191906000526020600020905b8154815290600101906020018083116111c957829003601f168201915b50505050508561434b565b80156112bb57506112ba60048281548110151561120a57fe5b90600052602060002090600402016002018054600181600116156101000203166002900480601f0160208091040260200160405190810160405280929190818152602001828054600181600116156101000203166002900480156112af5780601f10611284576101008083540402835291602001916112af565b820191906000526020600020905b81548152906001019060200180831161129257829003601f168201915b50505050508461434b565b5b80156112f85750600115156004828154811015156112d557fe5b906000526020600020906004020160030160009054906101000a900460ff161515145b15611547576001805480919060010161131191906144a1565b5060c0604051908101604052808581526020016040805190810160405280600181526020017f3000000000000000000000000000000000000000000000000000000000000000815250815260200184815260200160008152602001600063ffffffff1681526020013373ffffffffffffffffffffffffffffffffffffffff168152506001808080549050038154811015156113a857fe5b906000526020600020906005020160008201518160000190805190602001906113d29291906144d3565b5060208201518160010190805190602001906113ef9291906144d3565b50604082015181600201908051906020019061140c9291906144d3565b506060820151816003015560808201518160040160006101000a81548163ffffffff021916908363ffffffff16021790555060a08201518160040160046101000a81548173ffffffffffffffffffffffffffffffffffffffff021916908373ffffffffffffffffffffffffffffffffffffffff1602179055509050506114928484612572565b50336008856040518082805190602001908083835b6020831015156114cc57805182526020820191506020810190506020830392506114a7565b6001836020036101000a038019825116818451168082178552505050505050905001915050908152602001604051809103902060006101000a81548173ffffffffffffffffffffffffffffffffffffffff021916908373ffffffffffffffffffffffffffffffffffffffff160217905550600191505061155a565b8080600101915050611122565b50600090505b92915050565b600080600090505b6006805490508110156116c8573373ffffffffffffffffffffffffffffffffffffffff1660068281548110151561159b57fe5b906000526020600020906002020160000160009054906101000a900473ffffffffffffffffffffffffffffffffffffffff1673ffffffffffffffffffffffffffffffffffffffff161480156116ae57506116ad6006828154811015156115fd57fe5b90600052602060002090600202016001018054600181600116156101000203166002900480601f0160208091040260200160405190810160405280929190818152602001828054600181600116156101000203166002900480156116a25780601f10611677576101008083540402835291602001916116a2565b820191906000526020600020905b81548152906001019060200180831161168557829003601f168201915b50505050508461434b565b5b156116bd576000915050611bdd565b806001019050611568565b5060008090505b600180549050811015611bd75761179e6001828154811015156116ee57fe5b90600052602060002090600502016000018054600181600116156101000203166002900480601f0160208091040260200160405190810160405280929190818152602001828054600181600116156101000203166002900480156117935780601f1061176857610100808354040283529160200191611793565b820191906000526020600020905b81548152906001019060200180831161177657829003601f168201915b50505050508461434b565b15611bcc576001818154811015156117b257fe5b9060005260206000209060050201600401600081819054906101000a900463ffffffff168092919060010191906101000a81548163ffffffff021916908363ffffffff1602179055505060018181548110151561180b57fe5b906000526020600020906005020160040160009054906101000a900463ffffffff1663ffffffff1660018281548110151561184257fe5b906000526020600020906005020160030181905550600080905060038281548110151561186b57fe5b906000526020600020906003020160010160149054906101000a900463ffffffff1663ffffffff166003838154811015156118a257fe5b906000526020600020906003020160010160149054906101000a900463ffffffff1663ffffffff16600380549050031115156118dd57600190505b8015611a5e57600280548091906001016118f791906144a1565b5060018281548110151561190757fe5b9060005260206000209060050201600260016002805490500381548110151561192c57fe5b906000526020600020906005020160008201816000019080546001816001161561010002031660029004611961929190614553565b5060018201816001019080546001816001161561010002031660029004611989929190614553565b50600282018160020190805460018160011615610100020316600290046119b1929190614553565b50600382015481600301556004820160009054906101000a900463ffffffff168160040160006101000a81548163ffffffff021916908363ffffffff1602179055506004820160049054906101000a900473ffffffffffffffffffffffffffffffffffffffff168160040160046101000a81548173ffffffffffffffffffffffffffffffffffffffff021916908373ffffffffffffffffffffffffffffffffffffffff1602179055509050505b60068054809190600101611a7291906145da565b50336006600160068054905003815481101515611a8b57fe5b906000526020600020906002020160000160006101000a81548173ffffffffffffffffffffffffffffffffffffffff021916908373ffffffffffffffffffffffffffffffffffffffff160217905550836006600160068054905003815481101515611af257fe5b90600052602060002090600202016001019080519060200190611b1692919061460c565b50336008856040518082805190602001908083835b602083101515611b505780518252602082019150602081019050602083039250611b2b565b6001836020036101000a038019825116818451168082178552505050505050905001915050908152602001604051809103902060006101000a81548173ffffffffffffffffffffffffffffffffffffffff021916908373ffffffffffffffffffffffffffffffffffffffff160217905550600192505050611bdd565b8060010190506116cf565b50600090505b919050565b60606000600760008473ffffffffffffffffffffffffffffffffffffffff1673ffffffffffffffffffffffffffffffffffffffff16815260200190815260200160002080549050141515611c7c57600760008373ffffffffffffffffffffffffffffffffffffffff1673ffffffffffffffffffffffffffffffffffffffff1681526020019081526020016000206000611c7b919061468c565b5b60008090505b600480549050811015611db6578273ffffffffffffffffffffffffffffffffffffffff16600482815481101515611cb557fe5b906000526020600020906004020160010160009054906101000a900473ffffffffffffffffffffffffffffffffffffffff1673ffffffffffffffffffffffffffffffffffffffff161415611dab57600760008473ffffffffffffffffffffffffffffffffffffffff1673ffffffffffffffffffffffffffffffffffffffff168152602001908152602001600020600482815481101515611d5157fe5b90600052602060002090600402016000019080600181540180825580915050906001820390600052602060002001600090919290919091509080546001816001161561010002031660029004611da89291906146ad565b50505b806001019050611c82565b50600760008373ffffffffffffffffffffffffffffffffffffffff1673ffffffffffffffffffffffffffffffffffffffff168152602001908152602001600020805480602002602001604051908101604052809291908181526020016000905b82821015611ed2578382906000526020600020018054600181600116156101000203166002900480601f016020809104026020016040519081016040528092919081815260200182805460018160011615610100020316600290048015611ebe5780601f10611e9357610100808354040283529160200191611ebe565b820191906000526020600020905b815481529060010190602001808311611ea157829003601f168201915b505050505081526020019060010190611e16565b505050509050919050565b600581815481101515611eec57fe5b90600052602060002090600202016000915090508060000160009054906101000a900473ffffffffffffffffffffffffffffffffffffffff16908060010160009054906101000a900473ffffffffffffffffffffffffffffffffffffffff16905082565b600281815481101515611f5f57fe5b9060005260206000209060050201600091509050806000018054600181600116156101000203166002900480601f01602080910402602001604051908101604052809291908181526020018280546001816001161561010002031660029004801561200b5780601f10611fe05761010080835404028352916020019161200b565b820191906000526020600020905b815481529060010190602001808311611fee57829003601f168201915b505050505090806001018054600181600116156101000203166002900480601f0160208091040260200160405190810160405280929190818152602001828054600181600116156101000203166002900480156120a95780601f1061207e576101008083540402835291602001916120a9565b820191906000526020600020905b81548152906001019060200180831161208c57829003601f168201915b505050505090806002018054600181600116156101000203166002900480601f0160208091040260200160405190810160405280929190818152602001828054600181600116156101000203166002900480156121475780601f1061211c57610100808354040283529160200191612147565b820191906000526020600020905b81548152906001019060200180831161212a57829003601f168201915b5050505050908060030154908060040160009054906101000a900463ffffffff16908060040160049054906101000a900473ffffffffffffffffffffffffffffffffffffffff16905086565b600080600090505b6001805490508110156122a35761226a6001828154811015156121ba57fe5b90600052602060002090600502016000018054600181600116156101000203166002900480601f01602080910402602001604051908101604052809291908181526020018280546001816001161561010002031660029004801561225f5780601f106122345761010080835404028352916020019161225f565b820191906000526020600020905b81548152906001019060200180831161224257829003601f168201915b50505050508461434b565b156122985760018181548110151561227e57fe5b9060005260206000209060050201600301549150506122a9565b80600101905061219b565b50600090505b919050565b60003373ffffffffffffffffffffffffffffffffffffffff166000809054906101000a900473ffffffffffffffffffffffffffffffffffffffff1673ffffffffffffffffffffffffffffffffffffffff1614156125685760008090505b600380549050811015612566578273ffffffffffffffffffffffffffffffffffffffff1660038281548110151561233e57fe5b906000526020600020906003020160010160009054906101000a900473ffffffffffffffffffffffffffffffffffffffff1673ffffffffffffffffffffffffffffffffffffffff161415612559576002600380549050101580156123aa57506001600380549050038114155b156125395760006001820190505b600380549050811015612537576003818154811015156123d457fe5b90600052602060002090600302016003600183038154811015156123f457fe5b906000526020600020906003020160008201816000019080546001816001161561010002031660029004612429929190614553565b506001820160009054906101000a900473ffffffffffffffffffffffffffffffffffffffff168160010160006101000a81548173ffffffffffffffffffffffffffffffffffffffff021916908373ffffffffffffffffffffffffffffffffffffffff1602179055506001820160149054906101000a900463ffffffff168160010160146101000a81548163ffffffff021916908363ffffffff1602179055506001820160189054906101000a900463ffffffff168160010160186101000a81548163ffffffff021916908363ffffffff16021790555060028201816002019080546001816001161561010002031660029004612526929190614553565b5090505080806001019150506123b8565b505b600380548091906001900361254e9190614734565b50600191505061256d565b808060010191505061230b565b505b600090505b919050565b600080600090505b6004805490508110156128ad5761264960048281548110151561259957fe5b90600052602060002090600402016000018054600181600116156101000203166002900480601f01602080910402602001604051908101604052809291908181526020018280546001816001161561010002031660029004801561263e5780601f106126135761010080835404028352916020019161263e565b820191906000526020600020905b81548152906001019060200180831161262157829003601f168201915b50505050508561434b565b8015612713575061271260048281548110151561266257fe5b90600052602060002090600402016002018054600181600116156101000203166002900480601f0160208091040260200160405190810160405280929190818152602001828054600181600116156101000203166002900480156127075780601f106126dc57610100808354040283529160200191612707565b820191906000526020600020905b8154815290600101906020018083116126ea57829003601f168201915b50505050508461434b565b5b156128a25760026004805490501015801561273657506001600480549050038114155b156128825760006001820190505b6004805490508110156128805760048181548110151561276057fe5b906000526020600020906004020160046001830381548110151561278057fe5b9060005260206000209060040201600082018160000190805460018160011615610100020316600290046127b5929190614553565b506001820160009054906101000a900473ffffffffffffffffffffffffffffffffffffffff168160010160006101000a81548173ffffffffffffffffffffffffffffffffffffffff021916908373ffffffffffffffffffffffffffffffffffffffff16021790555060028201816002019080546001816001161561010002031660029004612844929190614553565b506003820160009054906101000a900460ff168160030160006101000a81548160ff021916908315150217905550905050806001019050612744565b505b60048054809190600190036128979190614766565b5060019150506128b3565b80600101905061257a565b50600090505b92915050565b600080836040516020018082805190602001908083835b6020831015156128f557805182526020820191506020810190506020830392506128d0565b6001836020036101000a038019825116818451168082178552505050505050905001915050604051602081830303815290604052511415612969576040805190810160405280600181526020017f300000000000000000000000000000000000000000000000000000000000000081525092505b60008090505b600180549050811015612ed557612a3e60018281548110151561298e57fe5b90600052602060002090600502016000018054600181600116156101000203166002900480601f016020809104026020016040519081016040528092919081815260200182805460018160011615610100020316600290048015612a335780601f10612a0857610100808354040283529160200191612a33565b820191906000526020600020905b815481529060010190602001808311612a1657829003601f168201915b50505050508661434b565b8015612b085750612b07600182815481101515612a5757fe5b90600052602060002090600502016001018054600181600116156101000203166002900480601f016020809104026020016040519081016040528092919081815260200182805460018160011615610100020316600290048015612afc5780601f10612ad157610100808354040283529160200191612afc565b820191906000526020600020905b815481529060010190602001808311612adf57829003601f168201915b50505050508561434b565b5b15612ec85782600182815481101515612b1d57fe5b90600052602060002090600502016002019080519060200190612b4192919061460c565b506000600182815481101515612b5357fe5b906000526020600020906005020160040160006101000a81548163ffffffff021916908363ffffffff1602179055506000600182815481101515612b9357fe5b90600052602060002090600502016003018190555060008090505b600280549050811015612ec657612c7d600282815481101515612bcd57fe5b90600052602060002090600502016000018054600181600116156101000203166002900480601f016020809104026020016040519081016040528092919081815260200182805460018160011615610100020316600290048015612c725780601f10612c4757610100808354040283529160200191612c72565b820191906000526020600020905b815481529060010190602001808311612c5557829003601f168201915b50505050508761434b565b15612eb95760028054905081101515612c9557600080fd5b6002600160028054905003815481101515612cac57fe5b9060005260206000209060050201600282815481101515612cc957fe5b906000526020600020906005020160008201816000019080546001816001161561010002031660029004612cfe929190614553565b5060018201816001019080546001816001161561010002031660029004612d26929190614553565b5060028201816002019080546001816001161561010002031660029004612d4e929190614553565b50600382015481600301556004820160009054906101000a900463ffffffff168160040160006101000a81548163ffffffff021916908363ffffffff1602179055506004820160049054906101000a900473ffffffffffffffffffffffffffffffffffffffff168160040160046101000a81548173ffffffffffffffffffffffffffffffffffffffff021916908373ffffffffffffffffffffffffffffffffffffffff1602179055509050506002600160028054905003815481101515612e1157fe5b906000526020600020906005020160008082016000612e309190614798565b600182016000612e409190614798565b600282016000612e509190614798565b60038201600090556004820160006101000a81549063ffffffff02191690556004820160046101000a81549073ffffffffffffffffffffffffffffffffffffffff021916905550506002805480919060019003612ead91906144a1565b50600192505050612edb565b8080600101915050612bae565b505b808060010191505061296f565b50600090505b9392505050565b60008073ffffffffffffffffffffffffffffffffffffffff166008836040518082805190602001908083835b602083101515612f335780518252602082019150602081019050602083039250612f0e565b6001836020036101000a038019825116818451168082178552505050505050905001915050908152602001604051809103902060009054906101000a900473ffffffffffffffffffffffffffffffffffffffff1673ffffffffffffffffffffffffffffffffffffffff16141515613037576008826040518082805190602001908083835b602083101515612fdc5780518252602082019150602081019050602083039250612fb7565b6001836020036101000a038019825116818451168082178552505050505050905001915050908152602001604051809103902060009054906101000a900473ffffffffffffffffffffffffffffffffffffffff16905061303c565b600090505b919050565b600080600090505b600380549050811015613114578273ffffffffffffffffffffffffffffffffffffffff1660038281548110151561307c57fe5b906000526020600020906003020160010160009054906101000a900473ffffffffffffffffffffffffffffffffffffffff1673ffffffffffffffffffffffffffffffffffffffff161415613109576003818154811015156130d957fe5b906000526020600020906003020160010160149054906101000a900463ffffffff1663ffffffff1691505061311a565b806001019050613049565b50600090505b919050565b600080600090505b6004805490508110156132da576131f660048281548110151561314657fe5b90600052602060002090600402016000018054600181600116156101000203166002900480601f0160208091040260200160405190810160405280929190818152602001828054600181600116156101000203166002900480156131eb5780601f106131c0576101008083540402835291602001916131eb565b820191906000526020600020905b8154815290600101906020018083116131ce57829003601f168201915b50505050508561434b565b80156132c057506132bf60048281548110151561320f57fe5b90600052602060002090600402016002018054600181600116156101000203166002900480601f0160208091040260200160405190810160405280929190818152602001828054600181600116156101000203166002900480156132b45780601f10613289576101008083540402835291602001916132b4565b820191906000526020600020905b81548152906001019060200180831161329757829003601f168201915b50505050508461434b565b5b156132cf576000915050613572565b806001019050613127565b50600080905060008090505b600380549050811015613453573373ffffffffffffffffffffffffffffffffffffffff1660038281548110151561331957fe5b906000526020600020906003020160010160009054906101000a900473ffffffffffffffffffffffffffffffffffffffff1673ffffffffffffffffffffffffffffffffffffffff1614156134465760038181548110151561337657fe5b9060005260206000209060030201600101601881819054906101000a900463ffffffff168092919060010191906101000a81548163ffffffff021916908363ffffffff160217905550506003818154811015156133cf57fe5b906000526020600020906003020160010160149054906101000a900463ffffffff1663ffffffff1660038281548110151561340657fe5b906000526020600020906003020160010160149054906101000a900463ffffffff1663ffffffff166003805490500311151561344157600191505b613453565b80806001019150506132e6565b50600480548091906001016134689190614766565b506080604051908101604052808581526020013373ffffffffffffffffffffffffffffffffffffffff16815260200184815260200182151581525060046001600480549050038154811015156134ba57fe5b906000526020600020906004020160008201518160000190805190602001906134e49291906144d3565b5060208201518160010160006101000a81548173ffffffffffffffffffffffffffffffffffffffff021916908373ffffffffffffffffffffffffffffffffffffffff16021790555060408201518160020190805190602001906135489291906144d3565b5060608201518160030160006101000a81548160ff02191690831515021790555090505060019150505b92915050565b60076020528160005260406000208181548110151561359357fe5b90600052602060002001600091509150508054600181600116156101000203166002900480601f0160208091040260200160405190810160405280929190818152602001828054600181600116156101000203166002900480156136385780601f1061360d57610100808354040283529160200191613638565b820191906000526020600020905b81548152906001019060200180831161361b57829003601f168201915b505050505081565b600080600090505b6001805490508110156138895761371760018281548110151561366757fe5b90600052602060002090600502016000018054600181600116156101000203166002900480601f01602080910402602001604051908101604052809291908181526020018280546001816001161561010002031660029004801561370c5780601f106136e15761010080835404028352916020019161370c565b820191906000526020600020905b8154815290600101906020018083116136ef57829003601f168201915b50505050508561434b565b801561379057506000836040516020018082805190602001908083835b6020831015156137595780518252602082019150602081019050602083039250613734565b6001836020036101000a03801982511681845116808217855250505050505090500191505060405160208183030381529060405251115b1561387e57826001828154811015156137a557fe5b906000526020600020906005020160010190805190602001906137c992919061460c565b50336008856040518082805190602001908083835b60208310151561380357805182526020820191506020810190506020830392506137de565b6001836020036101000a038019825116818451168082178552505050505050905001915050908152602001604051809103902060006101000a81548173ffffffffffffffffffffffffffffffffffffffff021916908373ffffffffffffffffffffffffffffffffffffffff160217905550600191505061388f565b806001019050613648565b50600090505b92915050565b6003818154811015156138a457fe5b9060005260206000209060030201600091509050806000018054600181600116156101000203166002900480601f0160208091040260200160405190810160405280929190818152602001828054600181600116156101000203166002900480156139505780601f1061392557610100808354040283529160200191613950565b820191906000526020600020905b81548152906001019060200180831161393357829003601f168201915b5050505050908060010160009054906101000a900473ffffffffffffffffffffffffffffffffffffffff16908060010160149054906101000a900463ffffffff16908060010160189054906101000a900463ffffffff1690806002018054600181600116156101000203166002900480601f016020809104026020016040519081016040528092919081815260200182805460018160011615610100020316600290048015613a405780601f10613a1557610100808354040283529160200191613a40565b820191906000526020600020905b815481529060010190602001808311613a2357829003601f168201915b5050505050905085565b600080600090505b600580549050811015613b61573373ffffffffffffffffffffffffffffffffffffffff16600582815481101515613a8557fe5b906000526020600020906002020160000160009054906101000a900473ffffffffffffffffffffffffffffffffffffffff1673ffffffffffffffffffffffffffffffffffffffff16148015613b4557508273ffffffffffffffffffffffffffffffffffffffff16600582815481101515613afb57fe5b906000526020600020906002020160010160009054906101000a900473ffffffffffffffffffffffffffffffffffffffff1673ffffffffffffffffffffffffffffffffffffffff16145b15613b54576001915050613d42565b8080600101915050613a52565b5060008090505b600380549050811015613d3c578273ffffffffffffffffffffffffffffffffffffffff16600382815481101515613b9b57fe5b906000526020600020906003020160010160009054906101000a900473ffffffffffffffffffffffffffffffffffffffff1673ffffffffffffffffffffffffffffffffffffffff161415613d2f57600381815481101515613bf857fe5b9060005260206000209060030201600101601481819054906101000a900463ffffffff168092919060010191906101000a81548163ffffffff021916908363ffffffff1602179055505060058054809190600101613c5691906147e0565b50336005600160058054905003815481101515613c6f57fe5b906000526020600020906002020160000160006101000a81548173ffffffffffffffffffffffffffffffffffffffff021916908373ffffffffffffffffffffffffffffffffffffffff160217905550826005600160058054905003815481101515613cd657fe5b906000526020600020906002020160010160006101000a81548173ffffffffffffffffffffffffffffffffffffffff021916908373ffffffffffffffffffffffffffffffffffffffff1602179055506000915050613d42565b8080600101915050613b68565b50600190505b919050565b60003373ffffffffffffffffffffffffffffffffffffffff166000809054906101000a900473ffffffffffffffffffffffffffffffffffffffff1673ffffffffffffffffffffffffffffffffffffffff161415613f9e5760008090505b600380549050811015613e3c578373ffffffffffffffffffffffffffffffffffffffff16600382815481101515613dd757fe5b906000526020600020906003020160010160009054906101000a900473ffffffffffffffffffffffffffffffffffffffff1673ffffffffffffffffffffffffffffffffffffffff161415613e2f576000915050613fa3565b8080600101915050613da4565b5060038054809190600101613e519190614734565b5060a0604051908101604052808581526020018473ffffffffffffffffffffffffffffffffffffffff168152602001600063ffffffff168152602001600063ffffffff168152602001838152506003600160038054905003815481101515613eb557fe5b90600052602060002090600302016000820151816000019080519060200190613edf9291906144d3565b5060208201518160010160006101000a81548173ffffffffffffffffffffffffffffffffffffffff021916908373ffffffffffffffffffffffffffffffffffffffff16021790555060408201518160010160146101000a81548163ffffffff021916908363ffffffff16021790555060608201518160010160186101000a81548163ffffffff021916908363ffffffff1602179055506080820151816002019080519060200190613f919291906144d3565b5090505060019050613fa3565b600090505b9392505050565b600080600090505b60018054905081101561425557614081600182815481101515613fd157fe5b90600052602060002090600502016000018054600181600116156101000203166002900480601f0160208091040260200160405190810160405280929190818152602001828054600181600116156101000203166002900480156140765780601f1061404b57610100808354040283529160200191614076565b820191906000526020600020905b81548152906001019060200180831161405957829003601f168201915b50505050508461434b565b1561424a576002600180549050101580156140a3575060018080549050038114155b1561422a5760006001820190505b600180549050811015614228576001818154811015156140cd57fe5b906000526020600020906005020160018083038154811015156140ec57fe5b906000526020600020906005020160008201816000019080546001816001161561010002031660029004614121929190614553565b5060018201816001019080546001816001161561010002031660029004614149929190614553565b5060028201816002019080546001816001161561010002031660029004614171929190614553565b50600382015481600301556004820160009054906101000a900463ffffffff168160040160006101000a81548163ffffffff021916908363ffffffff1602179055506004820160049054906101000a900473ffffffffffffffffffffffffffffffffffffffff168160040160046101000a81548173ffffffffffffffffffffffffffffffffffffffff021916908373ffffffffffffffffffffffffffffffffffffffff1602179055509050508060010190506140b1565b505b600180548091906001900361423f91906144a1565b50600191505061425b565b806001019050613fb2565b50600090505b919050565b60068181548110151561426f57fe5b90600052602060002090600202016000915090508060000160009054906101000a900473ffffffffffffffffffffffffffffffffffffffff1690806001018054600181600116156101000203166002900480601f0160208091040260200160405190810160405280929190818152602001828054600181600116156101000203166002900480156143415780601f1061431657610100808354040283529160200191614341565b820191906000526020600020905b81548152906001019060200180831161432457829003601f168201915b5050505050905082565b6000816040516020018082805190602001908083835b6020831015156143865780518252602082019150602081019050602083039250614361565b6001836020036101000a03801982511681845116808217855250505050505090500191505060405160208183030381529060405280519060200120836040516020018082805190602001908083835b6020831015156143fa57805182526020820191506020810190506020830392506143d5565b6001836020036101000a0380198251168184511680821785525050505050509050019150506040516020818303038152906040528051906020012014156144445760019050614449565b600090505b92915050565b60a06040519081016040528060608152602001600073ffffffffffffffffffffffffffffffffffffffff168152602001600063ffffffff168152602001600063ffffffff168152602001606081525090565b8154818355818111156144ce576005028160050283600052602060002091820191016144cd9190614812565b5b505050565b828054600181600116156101000203166002900490600052602060002090601f016020900481019282601f1061451457805160ff1916838001178555614542565b82800160010185558215614542579182015b82811115614541578251825591602001919060010190614526565b5b50905061454f91906148a7565b5090565b828054600181600116156101000203166002900490600052602060002090601f016020900481019282601f1061458c57805485556145c9565b828001600101855582156145c957600052602060002091601f016020900482015b828111156145c85782548255916001019190600101906145ad565b5b5090506145d691906148a7565b5090565b8154818355818111156146075760020281600202836000526020600020918201910161460691906148cc565b5b505050565b828054600181600116156101000203166002900490600052602060002090601f016020900481019282601f1061464d57805160ff191683800117855561467b565b8280016001018555821561467b579182015b8281111561467a57825182559160200191906001019061465f565b5b50905061468891906148a7565b5090565b50805460008255906000526020600020908101906146aa9190614922565b50565b828054600181600116156101000203166002900490600052602060002090601f016020900481019282601f106146e65780548555614723565b8280016001018555821561472357600052602060002091601f016020900482015b82811115614722578254825591600101919060010190614707565b5b50905061473091906148a7565b5090565b81548183558181111561476157600302816003028360005260206000209182019101614760919061494e565b5b505050565b8154818355818111156147935760040281600402836000526020600020918201910161479291906149e2565b5b505050565b50805460018160011615610100020316600290046000825580601f106147be57506147dd565b601f0160209004906000526020600020908101906147dc91906148a7565b5b50565b81548183558181111561480d5760020281600202836000526020600020918201910161480c9190614a5c565b5b505050565b6148a491905b808211156148a057600080820160006148319190614798565b6001820160006148419190614798565b6002820160006148519190614798565b60038201600090556004820160006101000a81549063ffffffff02191690556004820160046101000a81549073ffffffffffffffffffffffffffffffffffffffff021916905550600501614818565b5090565b90565b6148c991905b808211156148c55760008160009055506001016148ad565b5090565b90565b61491f91905b8082111561491b57600080820160006101000a81549073ffffffffffffffffffffffffffffffffffffffff02191690556001820160006149129190614798565b506002016148d2565b5090565b90565b61494b91905b80821115614947576000818161493e9190614798565b50600101614928565b5090565b90565b6149df91905b808211156149db576000808201600061496d9190614798565b6001820160006101000a81549073ffffffffffffffffffffffffffffffffffffffff02191690556001820160146101000a81549063ffffffff02191690556001820160186101000a81549063ffffffff02191690556002820160006149d29190614798565b50600301614954565b5090565b90565b614a5991905b80821115614a555760008082016000614a019190614798565b6001820160006101000a81549073ffffffffffffffffffffffffffffffffffffffff0219169055600282016000614a389190614798565b6003820160006101000a81549060ff0219169055506004016149e8565b5090565b90565b614ac691905b80821115614ac257600080820160006101000a81549073ffffffffffffffffffffffffffffffffffffffff02191690556001820160006101000a81549073ffffffffffffffffffffffffffffffffffffffff021916905550600201614a62565b5090565b90565b6000614ad58235615273565b905092915050565b600082601f8301121515614af057600080fd5b8135614b03614afe826151b4565b615187565b91508082526020830160208301858383011115614b1f57600080fd5b614b2a83828461528f565b50505092915050565b6000614b3f8235615285565b905092915050565b600060208284031215614b5957600080fd5b6000614b6784828501614ac9565b91505092915050565b60008060408385031215614b8357600080fd5b6000614b9185828601614ac9565b9250506020614ba285828601614b33565b9150509250929050565b600060208284031215614bbe57600080fd5b600082013567ffffffffffffffff811115614bd857600080fd5b614be484828501614add565b91505092915050565b600080600060608486031215614c0257600080fd5b600084013567ffffffffffffffff811115614c1c57600080fd5b614c2886828701614add565b9350506020614c3986828701614ac9565b925050604084013567ffffffffffffffff811115614c5657600080fd5b614c6286828701614add565b9150509250925092565b60008060408385031215614c7f57600080fd5b600083013567ffffffffffffffff811115614c9957600080fd5b614ca585828601614add565b925050602083013567ffffffffffffffff811115614cc257600080fd5b614cce85828601614add565b9150509250929050565b600080600060608486031215614ced57600080fd5b600084013567ffffffffffffffff811115614d0757600080fd5b614d1386828701614add565b935050602084013567ffffffffffffffff811115614d3057600080fd5b614d3c86828701614add565b925050604084013567ffffffffffffffff811115614d5957600080fd5b614d6586828701614add565b9150509250925092565b600060208284031215614d8157600080fd5b6000614d8f84828501614b33565b91505092915050565b614da18161521b565b82525050565b6000614db2826151ed565b80845260208401935083602082028501614dcb856151e0565b60005b84811015614e04578383038852614de6838351614e5a565b9250614df18261520e565b9150602088019750600181019050614dce565b508196508694505050505092915050565b614e1e8161522d565b82525050565b6000614e2f82615203565b808452614e4381602086016020860161529e565b614e4c816152d1565b602085010191505092915050565b6000614e65826151f8565b808452614e7981602086016020860161529e565b614e82816152d1565b602085010191505092915050565b600060a0830160008301518482036000860152614ead8282614e5a565b9150506020830151614ec26020860182614d98565b506040830151614ed56040860182614f1c565b506060830151614ee86060860182614f1c565b5060808301518482036080860152614f008282614e5a565b9150508091505092915050565b614f1681615259565b82525050565b614f2581615263565b82525050565b6000602082019050614f406000830184614d98565b92915050565b6000604082019050614f5b6000830185614d98565b614f686020830184614d98565b9392505050565b6000604082019050614f846000830185614d98565b8181036020830152614f968184614e5a565b90509392505050565b60006020820190508181036000830152614fb98184614da7565b905092915050565b6000602082019050614fd66000830184614e15565b92915050565b60006020820190508181036000830152614ff68184614e5a565b905092915050565b600060208201905081810360008301526150188184614e24565b905092915050565b6000608082019050818103600083015261503a8187614e5a565b90506150496020830186614d98565b818103604083015261505b8185614e5a565b905061506a6060830184614e15565b95945050505050565b600060a082019050818103600083015261508d8188614e5a565b905061509c6020830187614d98565b6150a96040830186614f1c565b6150b66060830185614f1c565b81810360808301526150c88184614e5a565b90509695505050505050565b600060c08201905081810360008301526150ee8189614e5a565b905081810360208301526151028188614e5a565b905081810360408301526151168187614e5a565b90506151256060830186614f0d565b6151326080830185614f1c565b61513f60a0830184614d98565b979650505050505050565b600060208201905081810360008301526151648184614e90565b905092915050565b60006020820190506151816000830184614f0d565b92915050565b6000604051905081810181811067ffffffffffffffff821117156151aa57600080fd5b8060405250919050565b600067ffffffffffffffff8211156151cb57600080fd5b601f19601f8301169050602081019050919050565b6000602082019050919050565b600081519050919050565b600081519050919050565b600081519050919050565b6000602082019050919050565b600061522682615239565b9050919050565b60008115159050919050565b600073ffffffffffffffffffffffffffffffffffffffff82169050919050565b6000819050919050565b600063ffffffff82169050919050565b600061527e82615239565b9050919050565b6000819050919050565b82818337600083830152505050565b60005b838110156152bc5780820151818401526020810190506152a1565b838111156152cb576000848401525b50505050565b6000601f19601f830116905091905056fea265627a7a723058208328f7635d741dffdf47c6c5aca6ac6c2b5022583cfd5062880f226248cb544d6c6578706572696d656e74616cf50037",
  "source": "pragma solidity >=0.4.22 <0.6.0;\npragma experimental ABIEncoderV2;\n\n/**\n@title KYC Contract\n */\ncontract KYCContract{\n    \n    /**\n\t@notice Customer structure to store details of customer\n\t */\n    struct Customer{\n        string userName; \t\t// Provided by the customer and used as unique identifier \n        string password; \t\t// Password to Protect the customer data from external views\n        string customerData; \t// Hash of the data or identity documents provided by the customer\n        uint256 rating;\t\t\t// Rating given to the customer based on the regularity by other banks\n        uint32 upVotes; \t\t// Number of votes received from other banks over the Customer data\n        address bank; \t\t\t//This is a unique address of the bank that validated the customer account\n    }\n    \n    /**\n\t@notice Bank structure to store details of the bank\n\t */\n    struct Bank{\n        string name; \t\t\t// Name of the bank/organisation\n        address ethAddress; \t// Unique Ethereum address of the bank/organisation\n        uint32 rating; \t\t\t// Rating received from other banks based on number of valid/invalid KYC verifications\n        uint32 kycCount; \t\t// Number of KYC requests initiated by the bank/organisation\n        string regNumber; \t\t// Unique registration number for the bank\n    }\n    \n\t/**\n\t@notice KycRequest structure to contain KYC request from bank initiated for a customer. \n\t */\n    struct KycRequest{\n\t\tstring uname; \t\t\t// Map the KYC request with the unique user name.\n\t\taddress bankAddress; \t// Bank address here is a unique account address for the bank, which can be used to track the bank.\n\t\tstring customerData; \t// Hash of customer data or identification documents provided by the Customer. This is unique for each request.\n\t\tbool isAllowed; \t\t// IsAllowed is used to specify if the request is added by a trusted bank or not. It is set to false for all the bank requests done by the bank if bank is not secure.\n\t}\n\t\n\t/**\n\t@notice BankRating structure to contain rating given by a bank to other bank\n\t */\n\tstruct BankRating{\n\t    address fromBankAddress; //Bank which provides rating \n\t    address toBankAddress; //Bank which was rated\n\t}\n\t\n\t/**\n\t@notice CustomerRating structure to contain rating given by Bank to a customer\n\t */\n\tstruct CustomerRating{\n\t    address fromBankAddress; //Bank which provides rating to customer\n\t    string toCustomerName; //customer who was rated\n\t}\n\t\n\t/**\n\t@notice Contains address of the contract owner\n\t */\n\taddress contractOwner; \n\n\t/**\n\t@notice  Contains list of customer for which KYC request was submitted\n\t */\n    Customer[] public customerList;\n    \n\t/**\n\t@notice final list of customers for which KYC requests were approved with higher rating\n\t */\n    Customer[] public finalCustomerList;\n    \n\t/**\n\t@notice List of banks added by Admin and it's details\n\t */\n    Bank[] public bankList;\n    \n\t/**\n\t@notice Contains all KYC requests raised by different set of banks\n\t */\n    KycRequest[] public requestList;\n    \n\t/**\n\t@notice Contains list of rating request by Bank to other banks\n\t */\n    BankRating[] public voteBankList;\n    \n\t/**\n\t@notice Contains list of rating request by Bank to customers\n\t */\n    CustomerRating[] public customerRatingList;\n    \n\t/**\n\t@notice To retrieve list of KYC requests by a specific bank based on address\n\t */\n    mapping(address => string[]) public bankRequestList;\n    \n\t/**\n\t@notice To fetch access log for customer data \n\t */\n    mapping(string => address) accessHistory;\n    \n\t/**\n\t@notice public constructor for KYCContract\n\t*/\n    constructor() public {\n        contractOwner = msg.sender; //Contains owner of the contract \n    }\n    \n\t/**\n\t@notice To compare two strings and return true or false. \n\t@param a : String \n\t@param b : String\n\t@return boolean\n\t */\n\tfunction hashCompareWithLengthCheck(string memory a, string memory b) internal pure returns (bool) {\n\n\t\tif (keccak256(abi.encodePacked(a)) == keccak256(abi.encodePacked(b))) {\n\t\t\treturn true;\n\t\t}\n\t\telse {\n\t\t\treturn false;\n\t\t}\n\t}\n    // function hashCompareWithLengthCheck ( string storage _a, string memory _b ) internal view returns ( bool ) {\n\t\t\n\t// \tbytes storage a = bytes(_a); // storing the first string\n\t\t\n\t// \tbytes memory b = bytes(_b); // storing the second string\n\t\t\n\t// \tif ( a.length != b.length ) // comparing the lengths of the strings if not matched returns false\n\t// \t\treturn false;\n\t\t\t\n\t// \t// byte wise comparison of two strings if not matched returns false\n\t// \tfor ( uint i = 0; i < a.length; i++ ) {\n\t// \t\t\tif ( a[i] != b[i] )\n\t// \t\t\treturn false;\n\t// \t}\n\t\t\n\t// \treturn true; // non of the above comparisons failed, returning true as both strings are equal \n\t// }\n    \n    /**\n\t@notice Used Create new KYC request by Bank if the request for specific customer is not already in list of KYC requests.\n\t@param customerName : String\n\t@param customerData : String\n\t@return Boolean, 0 if KYC request for customer already present in the storage, otherwise return 1.\n\t */\n    function addRequest ( string memory customerName, string memory customerData ) public payable returns( uint ) {\n        \n        /* Checking if the request with same customerName & customerData already created.\n           If already created then reject the request by returning 0.\n        */\n        \n        for ( uint i = 0; i < requestList.length; ++i ) {\n\t\t\tif ( hashCompareWithLengthCheck(requestList[i].uname, customerName) && \n\t\t\t        hashCompareWithLengthCheck(requestList[i].customerData,customerData) ) {\n\t\t\t\t\treturn 0;\n\t\t\t}\n\t\t}\n\t\t\n\t\t//Contains whether the bank is allowed for validation based on it's rating\n\t\tbool isBankAllowedValidation = false;\n\t\t\n\t\t//Increase the kycCount field for request raised by the bank\n\t\tfor ( uint i = 0; i < bankList.length; i++ ) {\n\t        if ( bankList[i].ethAddress == msg.sender ) {\n\t            bankList[i].kycCount++;\n\t            // if ( bankList[i].rating > uint256(0.5)){ //if Bank's rating is greater than 0.5 then it is allowed to validate KYC\n\t\t\t\t//Couldn't execute above logic as I got an error Error: CompileError: UnimplementedFeatureError: Not yet implemented - FixedPointType. and couldn't proceed further\n\t\t\t\tif ( (bankList.length - bankList[i].rating ) <= bankList[i].rating ){\n\t            \tisBankAllowedValidation = true;\n\t\t\t\t}\n\t\t\t\tbreak;\n\t        }\n\t\t}\n\t\t\n\t\t// Increase the length of the requestList to store the new request\n\t\trequestList.length++; \n\t\trequestList[requestList.length - 1] = KycRequest(customerName,msg.sender,customerData,isBankAllowedValidation);\n\t\t\n\t\t//returning 1 as successfull request creation\n\t\treturn 1;\n    }\n    \n\t/**\n\t@notice Add given customer details to KYC list\n\t@param customerName string\n\t@param customerData string\n\t@return UNIT 1 if customer is added successfull else returns 0\n\t */\n    function addCustomer ( string memory customerName, string memory customerData ) public payable returns( uint ) {\n        \n        /**\n\t\t@dev If customerName is not present already in the list of customer list, then proceed\n        */\n        for ( uint i = 0; i < customerList.length; ++i ) {\n\t\t\tif ( hashCompareWithLengthCheck(customerList[i].userName, customerName) )\n\t\t\treturn 0;\n        }\n\t\t\n\t\t/**\n\t\t@dev check if the kyc request is created for this customer or not in requestList and isAllowed is true then add the customer to customerList\n\t\t*/\n\t\tfor ( uint i = 0; i < requestList.length; i++ ) {\n\t\t    \n\t\t    //checking if the request is created for customer or not\n\t\t    if(hashCompareWithLengthCheck(requestList[i].uname,customerName) && hashCompareWithLengthCheck(requestList[i].customerData,customerData) && requestList[i].isAllowed == true){\n\n\t\t\t\t//Increasing the length of the customerList to add new customer data\n\t\t\t\tcustomerList.length++;\n\t\t\t\t\n\t\t\t\t//Adding the new customer to the list\n\t\t\t\tcustomerList[customerList.length-1] = Customer(customerName, \"0\", customerData,0,0,msg.sender);\n\t\t\t\t\n\t\t\t\t//Once customer is added successfully to the list we can remove it from the kycRequest list\n\t\t\t\tremoveRequest(customerName,customerData);\n\t\t\t\t\n\t\t\t\t//Save the accessHistory of customer details\n\t\t\t\taccessHistory[customerName] = msg.sender;\n\t\t\t\t\n\t\t\t\t//returning 1 as customer is added successfully\n\t\t\t\treturn 1;\n\t\t                \n\t\t    }\n\t\t}\n\t\t//returning 0 , customer details are not added to the list\n\t\treturn 0;\n    }\n\n\n\t/**\n\t@notice To remove requested customer information from KYC\n\t@dev scope public\n\t@param customerName string\n\t@param customerData string\n\t@return UNIT returns 1 if request is deleted successfully else returns 0\n\t */\n    function removeRequest ( string memory customerName, string memory customerData ) public payable returns( uint ) {\n        \n        /* check if the customer details present in the requestList\n           if present then remove it from the list by shifting the next reques to its position\n           and rest of the requests to one position left\n        */\n\t\tfor ( uint i = 0; i < requestList.length; ++i ) {\n\t\t    \n\t\t    //comparison of given data with existing list data\n\t\t\tif ( hashCompareWithLengthCheck(requestList[i].uname, customerName) && hashCompareWithLengthCheck(requestList[i].customerData,customerData) ) {\n\t\t\t\t\n\t\t\t\tif ( requestList.length >= 2 && i != (requestList.length-1)) {\n\t\t\t\t    \n\t\t\t\t    //shifting of requests\n\t\t\t\t    for (uint j = i+1; j < requestList.length; ++j ) {\n\t\t\t\t        requestList[j-1] = requestList[j];\n\t\t\t\t    }\n\t\t\t\t}\n\t\t\t\t\n\t\t\t\t//decreasing the length of the list by 1 \n\t\t\t\trequestList.length --;\n\t\t\t\t//returning 1 as successfull removal of request\n\t\t\t\treturn 1;\n\t\t\t}\n\t\t}\n\t\t// returning 0 as request couldnt find in the list\n\t\treturn 0;\n\t}\n\t\n\t/**\n\t@notice Remove customer from customer list\n\t@param customerName : String\n\t@return UNIT returns 1 if given customer name present in the customer list and removed, otherwise return 0 \n\t */\n\tfunction removeCustomer ( string memory customerName ) public payable returns( uint ) {\n\t    \n\t   /* check if the customer details present in the requestList\n          if present then remove it from the list by shifting the next reques to its position\n          and rest of the requests to one position left\n        */\n\t\tfor ( uint i = 0; i < customerList.length; ++i ) {\n\t\t    \n\t\t    //comparison of given data with existing list data\n\t\t\tif ( hashCompareWithLengthCheck(customerList[i].userName, customerName) ) {\n\t\t\t    \n\t\t\t    if ( customerList.length >= 2 && i != customerList.length-1) { \n\t\t\t        \n\t\t\t        //shifting of customers\n\t\t\t        for ( uint j = i+1; j < customerList.length; ++j ) {\n\t\t\t            customerList[j-1] = customerList[j];\n\t\t\t        }\n\t\t\t    }\n\t\t\t\t\n\t\t\t\t//decreasing the length of the list by 1\n\t\t\t\tcustomerList.length --;\n\t\t\t\t//returning 1 as successfull removal of request\n\t\t\t\treturn 1;\n\t\t\t}\n\t\t}\n\t\t// returning 0 as request couldnt find in the list\n\t\treturn 0;\n\t}\n\t\n\t/**\n\t@notice To Retrieve and view customer data\n\t@param customerName : String \n\t@param password : String\n\t@return \n\t */\n\t//function is used to view the customer details\n\t//@params customerName as string\n\t//@params password as string\n\t//@returns the customer details if found else print the meesage that customer is not found\n\t\n\tfunction viewCustomer ( string memory customerName, string memory password ) public view returns( string memory ) {\n\t\t\n\t\t//if the password is empty, then assign to 0\n\t\tif(abi.encodePacked(password).length  == 0) {\n\t\t\tpassword = \"0\";\n\t\t}\n\n\t\t//If customer data present return\n\t\tfor ( uint i = 0; i < customerList.length; ++i ) {\n\t\t\tif ( hashCompareWithLengthCheck(customerList[i].userName, customerName) && hashCompareWithLengthCheck(customerList[i].password,password) ) {\n\t            return customerList[i].customerData; // returning the customer data\n\t\t\t}\n\t\t}\n\t\t//returning message as customer details are not found\n\t\treturn \"Invalid credentials or customer not present in database!\";\n\t}\n\t\n\t/**\n\t@notice Cast a vote to customer by Bank if not already voted\n\t@param customerName : String\n\t@return UNIT returns 1 if the cast of a vote to customer is successful, otherwise 0\n\t */\n\tfunction upVoteCustomer ( string memory customerName ) public payable returns( uint ) {\n\t\t\n\t\t/**\n\t\t@dev If the bank is not already voted, proceed to next step. \n\t    */\n\t    for ( uint i = 0; i < customerRatingList.length; ++i ) {\n\t        if ( customerRatingList[i].fromBankAddress == msg.sender && hashCompareWithLengthCheck(customerRatingList[i].toCustomerName,customerName) ) {\n\t            return 0;\n\t        }\n\t    }\n\t    \n\t\t//checking for the customer in customerList\n\t\tfor ( uint i = 0; i < customerList.length; ++i ) {\n\t\t\t\n\t\t\tif ( hashCompareWithLengthCheck(customerList[i].userName, customerName) ) {\n\t\t\t    \n\t\t\t    //customer found in the list so increase vote by 1\n\t\t\t    customerList[i].upVotes++;\n\t\t\t    \n\t\t\t    //calculate the rating for the customer\n\t\t\t    customerList[i].rating = customerList[i].upVotes;\n\t\t\t    \n\t\t\t    bool addToFinalCustomer = false;\n\t\t\t    \n\t\t\t    // if( bankList.length > 0 && ( customerList[i].rating - bankList.length ) > uint256(0.5) )\n\t\t\t\t//Couldn't execute above logic as I got an error Error: CompileError: UnimplementedFeatureError: Not yet implemented - FixedPointType. and couldn't proceed further\n\t\t\t\tif ( (bankList.length - bankList[i].rating ) <= bankList[i].rating )\n\t\t\t        addToFinalCustomer = true;\n\t\t\t    \n\t\t\t    //if rating percentage is more than 50% then add the customer to finalCustomerList\n\t\t\t    if ( addToFinalCustomer ) {\n\t\t\t        \n\t\t\t        //increasing the length of the finalCustomerList to add the customer\n\t\t\t        finalCustomerList.length++;\n\t\t\t        \n\t\t\t        //adding the customer to finalCustomerList\n\t\t\t        finalCustomerList[finalCustomerList.length-1] = customerList[i];\n\t\t\t    }\n\t\t\t    \n\t\t\t     //we want to track the from & to rated customer , increase the length of the list by one for new entry\n\t            customerRatingList.length++;\n\t            \n\t            //save the bank which rates the other customer\n\t            customerRatingList[customerRatingList.length-1].fromBankAddress = msg.sender;\n\t            \n\t            //save the rated customer  \n\t            customerRatingList[customerRatingList.length-1].toCustomerName = customerName;\n\t\t\t    \n\t\t\t    //storing the accessHistory details\n\t\t\t    accessHistory[customerName] = msg.sender;\n\t\t\t    \n\t\t\t    //returning 1 as upvoted successfully\n\t\t\t    return 1;\n\t\t\t\t}\n\t\t}\n\t\t//returning 0, couldnt find the customer\n\t\treturn 0;\n\t}\n\t\n\t/**\n\t@notice Modify customer data for the given credentials. \n\t@param customerName : String - For which the new customer data to be replaced\n\t@param password : String - password of the customer\n\t@param newCustomerData : String - New customer data to bre placed\n\t@return UNIT - returns 1 if customer modification is success, otherwise 0\n\t */\n\tfunction modifyCustomer ( string memory customerName, string memory password, string memory newCustomerData ) public payable returns( uint ) {\n\t    \n\t\t//if the password is empty, then assign to 0\n\t\tif(abi.encodePacked(password).length  == 0) {\n\t\t\tpassword = \"0\";\n\t\t}\n\n\t    //checking if the customer is found customerList\n\t    for ( uint i = 0; i < customerList.length; i++ ) {\n\t        \n\t\t\tif ( hashCompareWithLengthCheck(customerList[i].userName, customerName) &&  hashCompareWithLengthCheck(customerList[i].password,password) ) {\n\t\t\t            \n\t\t\t\t//change the customerData to new dataHash\n\t\t\t\tcustomerList[i].customerData = newCustomerData;\n\n\t\t\t\t//resetting the upVotes & rating to 0\n\t\t\t\tcustomerList[i].upVotes = 0;\n\t\t\t\tcustomerList[i].rating = 0;\n\t\t\t    \n\t\t\t    /**\n\t\t\t\t@dev Since customer dataHash got changed removing the customer details from finalCustomerList\n\t\t\t    */\n\n\t\t\t    for ( uint j = 0; j < finalCustomerList.length;j++ ) {\n\t\t\t        if ( hashCompareWithLengthCheck(finalCustomerList[j].userName,customerName) ) {\n\t\t\t\t\t\t//removeElement(finalCustomerList, j);\n\t\t\t\t\t\trequire(j < finalCustomerList.length);\n                \t\tfinalCustomerList[j] = finalCustomerList[finalCustomerList.length-1];\n                \t\tdelete finalCustomerList[finalCustomerList.length-1];\n                \t\tfinalCustomerList.length--;\t\t\n\n\t\t\t\t\t\treturn 1;\n\t\t\t\t\t}\n\t\t\t    }\n\t\t\t}\n\t    }\n\t\t\t\n        //returning 0 , couldnt find the customer\n        return 0;\n\t}\n\n\t/**\n\t@notice Remove an Element from Array and move last element of an array to deleted index\n\t@param array : Array of Struct or UNIT\n\t@param index : UNIT\n\t */\n// \tfunction removeElement(struct [] memory array, uint index) private {\n// \t\trequire(index < array.length);\n// \t\tarray[index] = array[array.length-1];\n// \t\tdelete array[array.length-1];\n// \t\tarray.length--;\t\t\n// \t}\n\t\n\t/**\n\t@notice Retrieve list of all KYC requests by given bank\n\t@param bankAddress : Address of bank\n\t@return Array of KYC requests by a bank which are not validated yet.\n\t */\n\tfunction getBankRequests ( address bankAddress ) public payable returns( string[] memory ) {\n\t   \n\t\tif(bankRequestList[bankAddress].length!=0){\n\t\t\tdelete bankRequestList[bankAddress];\n\t\t}\n\t\t\n\t   \tfor ( uint i = 0; i < requestList.length; ++i ) {\n\t\t\tif ( requestList[i].bankAddress == bankAddress ) {\n\t\t        //store the request details to list\n\t\t\t\tbankRequestList[bankAddress].push(requestList[i].uname);\n\t\t\t}\n\t\t}\n\t\t\n\t\treturn bankRequestList[bankAddress];\n\t    \n\t}\n\t\n\t/**\n\t@notice Vote another bank if not already by the source bank to target bank\n\t@param bankAddress : Bank address for which the voting to be given\n\t@return UNIT - Returns 1 if upvote is success\n\t */\n\tfunction upVoteBank ( address bankAddress ) public payable returns( uint ) {\n\t    \n\t    /*checking if the bank is rated the other bank already\n\t      if rated then reject the request by returning 1\n\t    */ \n\t    for ( uint i = 0; i < voteBankList.length; i++ ) {\n\t        if ( voteBankList[i].fromBankAddress == msg.sender && voteBankList[i].toBankAddress == bankAddress ) {\n\t            return 1;\n\t        }\n\t    }\n\t    \n\t    //check if the bank exists in the current bankList\n\t    for ( uint i = 0; i < bankList.length; i++ ) {\n\t        \n\t        if ( bankList[i].ethAddress == bankAddress ) {\n\t            \n\t            //bank exists in the list increase the rating by 1\n\t            bankList[i].rating++;\n\t            \n\t            //we want to track the from & to rated banks , increase the length of the list by one for new entry\n\t            voteBankList.length++;\n\t            \n\t            //save the bank which rates the other bank\n\t            voteBankList[voteBankList.length-1].fromBankAddress = msg.sender;\n\t            \n\t            //save the rated bank  \n\t            voteBankList[voteBankList.length-1].toBankAddress = bankAddress;\n\t            \n\t            //return 0 for successfull of rateOtherBank\n\t            return 0;\n\t        }\n\t    }\n\t    //return 1 if the bank is not found in the list \n\t    return 1;\n\t}\n\t\n\t/**\n\t@notice Get rating for given customer\n\t@param username - String \n\t@return UINT\n\t */\n    function getCustomerRating ( string memory username ) public payable returns( uint ) {\n        \n        //checking if the customerName exists in the customerList\n        for ( uint i = 0; i < customerList.length; ++ i ) {\n            if ( hashCompareWithLengthCheck(customerList[i].userName, username) ) {\n                \n                //since customer exists in the list returning the up\n                return customerList[i].rating;\n            }\n        }\n        \n        //returns 0 if customer is not found in the list\n        return 0;\n    }\n    \n\t/**\n\t@notice Get rating for given bank\n\t@param bankAddress - address \n\t@return UINT\n\t */\n    function getBankRating ( address bankAddress ) public payable returns( uint ) {\n        \n        //checking if the bank exists in the list\n        for ( uint i = 0; i < bankList.length; ++i ) {\n            \n            if ( bankList[i].ethAddress == bankAddress ) {\n                \n                //since bank exists in the list, returning the rating\n                return bankList[i].rating;\n            }\n        }\n        \n        //returning 0 , bank is not found the list\n        return 0;\n    }\n\t\n\t/**\n\t@notice Retrieve customer access logs for given username\n\t@param username : String\n\t@return Address\n\t */\n\tfunction retrieveCustomerAccessHistory ( string memory username ) public payable returns( address ) {\n\t\tif(accessHistory[username]!=address(0)) {\n\t\t\treturn accessHistory[username];\n\t\t}\n\t\telse{\n\t\t\treturn address(0);\n\t\t}\n    }\n\t\n\t/**\n\t@notice Set password for the given user\n\t@param username : String\n\t@param password : String\n\t@return Boolean \n\t */\n\tfunction setPassword (string memory username, string memory password ) public payable returns( bool ) {\n\t   \n\t    //checking for the customer in the list\n\t    for ( uint i = 0; i < customerList.length; ++i ) {\n\t        \n\t\t\tif ( hashCompareWithLengthCheck(customerList[i].userName, username) && abi.encodePacked(password).length > 0 ) {\n\t\t\t    \n\t\t\t    //customer is found in the list setting the password for customer\n\t\t\t    customerList[i].password = password;\n\t\t\t    \n\t\t\t    //store the address of the bank which modified the customer\n\t\t\t    accessHistory[username] = msg.sender;\n\t\t\t    \n\t\t\t    //returning true after successfully setting the password\n\t\t\t    return true;\n\t\t\t}\n\t\t}\n\t\t\n\t\t//returning false, couldnt find the customer in the list\n\t\treturn false;\n\t}\n\t\n\t/**\n\t@notice Fetch bank details for given bank address\n\t@param bankAddress : address\n\t@return Bank Struct\n\t */\n\tfunction getBankDetails ( address bankAddress ) public view returns( Bank memory ) {\n\t    \n\t    //checking if bank is available in the list or not\n\t    for ( uint i = 0; i < bankList.length; i++ ) {\n\t        \n\t        if ( bankList[i].ethAddress == bankAddress ) {\n\t            \n\t            //bank is available in the list so returning its structure\n\t            return bankList[i];\n\t        }\n\t    }\n    }\n\t\n\n\t/**\n\t@notice Add bank details to the contract if not already exists\n\t@param bankName : String\n\t@param bankAddress : address\n\t@param regNumber : String\n\t@return UNIT\n\t */\n\tfunction addBank ( string memory bankName, address bankAddress, string memory regNumber ) public payable returns( uint ) {\n\n\t    //checking if the the request made by the admin or not\n\t    if ( contractOwner == msg.sender ) {\n\t        \n\t        for ( uint i = 0; i < bankList.length; i++ ) {\n\t            \n\t            //checking if the bank is available in the list or not\n\t            if ( bankList[i].ethAddress == bankAddress ) {\n\t                \n\t                //since bank is already registered rejecting the request by returning 0\n\t                return 0;\n\t            }\n\t        }\n\t        //since request made by the admin, increasing the bank list by 1 to add the new bank details\n\t        bankList.length++;\n\t        \n\t        //adding new bank details to the list\n\t        bankList[bankList.length-1]= Bank(bankName,bankAddress,0,0,regNumber);\n\t        \n\t        //returning 1 as successfull addition of bank to the list\n\t        return 1;\n\t    }\n\t    \n\t    //rejecting the request by returning 0\n\t    return 0;\n\t}\n\t\n\t/**\n\t@notice Remove bank from the contract \n\t@param bankAddress : address\n\t@return UNIT\n\t*/\n\tfunction removeBank ( address bankAddress ) public payable returns( uint ) {\n\t    \n\t    //checking if the request made by the admin or not\n\t    if ( contractOwner == msg.sender ) {\n\t        \n\t        for ( uint i = 0; i < bankList.length; i++ ) {\n\t            \n\t            //checking if the bank is available in the list or not\n\t            if ( bankList[i].ethAddress == bankAddress ) {\n\t                \n\t                if ( bankList.length >= 2 && i != (bankList.length-1)) {\n\t                    \n\t                    //shifting of banks to left by one postion to remove the bankList\n\t                    for ( uint j = i+1; j < bankList.length; j++ )\n\t                    bankList[j-1]=bankList[j];\n\t                }\n\t                //decreasing the length of the list by 1\n\t                bankList.length--;\n\t                \n\t                //returning 1 as successfull removal of bank\n\t                return 1;\n\t            }\n\t        }\n\t    }\n\t    \n\t    //rejecting the request/ if bank is not found in the list returns 0\n\t    return 0;\n\t}\n\n}",
  "sourcePath": "/home/saikumark/work/blockchain/Assignment_saikumar/Assignment/Phase-3/KYC-SC/contracts/KYC.sol",
  "compiler": {
    "name": "solc",
    "version": "0.5.1+commit.c8a2cb62.Emscripten.clang"
  },
  "schemaVersion": "3.0.19",
  "updatedAt": "2019-11-17T14:33:09.362Z",
  "networkType": "ethereum",
  "devdoc": {
    "methods": {
      "addBank(string,address,string)": {
        "params": {
          "bankAddress": ": address",
          "bankName": ": String",
          "regNumber": ": String"
        },
        "return": "UNIT"
      },
      "addCustomer(string,string)": {
        "params": {
          "customerData": "string",
          "customerName": "string"
        },
        "return": "UNIT 1 if customer is added successfull else returns 0"
      },
      "addRequest(string,string)": {
        "params": {
          "customerData": ": String",
          "customerName": ": String"
        },
        "return": "Boolean, 0 if KYC request for customer already present in the storage, otherwise return 1."
      },
      "getBankDetails(address)": {
        "params": {
          "bankAddress": ": address"
        },
        "return": "Bank Struct"
      },
      "getBankRating(address)": {
        "params": {
          "bankAddress": "- address "
        },
        "return": "UINT"
      },
      "getBankRequests(address)": {
        "params": {
          "bankAddress": ": Address of bank"
        },
        "return": "Array of KYC requests by a bank which are not validated yet."
      },
      "getCustomerRating(string)": {
        "params": {
          "username": "- String "
        },
        "return": "UINT"
      },
      "modifyCustomer(string,string,string)": {
        "params": {
          "customerName": ": String - For which the new customer data to be replaced",
          "newCustomerData": ": String - New customer data to bre placed",
          "password": ": String - password of the customer"
        },
        "return": "UNIT - returns 1 if customer modification is success, otherwise 0"
      },
      "removeBank(address)": {
        "params": {
          "bankAddress": ": address"
        },
        "return": "UNIT"
      },
      "removeCustomer(string)": {
        "params": {
          "customerName": ": String"
        },
        "return": "UNIT returns 1 if given customer name present in the customer list and removed, otherwise return 0 "
      },
      "removeRequest(string,string)": {
        "details": "scope public",
        "params": {
          "customerData": "string",
          "customerName": "string"
        },
        "return": "UNIT returns 1 if request is deleted successfully else returns 0"
      },
      "retrieveCustomerAccessHistory(string)": {
        "params": {
          "username": ": String"
        },
        "return": "Address"
      },
      "setPassword(string,string)": {
        "params": {
          "password": ": String",
          "username": ": String"
        },
        "return": "Boolean "
      },
      "upVoteBank(address)": {
        "params": {
          "bankAddress": ": Bank address for which the voting to be given"
        },
        "return": "UNIT - Returns 1 if upvote is success"
      },
      "upVoteCustomer(string)": {
        "params": {
          "customerName": ": String"
        },
        "return": "UNIT returns 1 if the cast of a vote to customer is successful, otherwise 0"
      },
      "viewCustomer(string,string)": {
        "params": {
          "customerName": ": String ",
          "password": ": String"
        }
      }
    },
    "title": "KYC Contract"
  },
  "userdoc": {
    "methods": {
      "addBank(string,address,string)": {
        "notice": "Add bank details to the contract if not already exists"
      },
      "addCustomer(string,string)": {
        "notice": "Add given customer details to KYC list"
      },
      "addRequest(string,string)": {
        "notice": "Used Create new KYC request by Bank if the request for specific customer is not already in list of KYC requests."
      },
      "constructor": "public constructor for KYCContract",
      "getBankDetails(address)": {
        "notice": "Fetch bank details for given bank address"
      },
      "getBankRating(address)": {
        "notice": "Get rating for given bank"
      },
      "getBankRequests(address)": {
        "notice": "Retrieve list of all KYC requests by given bank"
      },
      "getCustomerRating(string)": {
        "notice": "Get rating for given customer"
      },
      "modifyCustomer(string,string,string)": {
        "notice": "Modify customer data for the given credentials. "
      },
      "removeBank(address)": {
        "notice": "Remove bank from the contract "
      },
      "removeCustomer(string)": {
        "notice": "Remove customer from customer list"
      },
      "removeRequest(string,string)": {
        "notice": "To remove requested customer information from KYC"
      },
      "retrieveCustomerAccessHistory(string)": {
        "notice": "Retrieve customer access logs for given username"
      },
      "setPassword(string,string)": {
        "notice": "Set password for the given user"
      },
      "upVoteBank(address)": {
        "notice": "Vote another bank if not already by the source bank to target bank"
      },
      "upVoteCustomer(string)": {
        "notice": "Cast a vote to customer by Bank if not already voted"
      },
      "viewCustomer(string,string)": {
        "notice": "To Retrieve and view customer data"
      }
    }
  }
}